:060000000A128A11C02D56
:100B800083010A128A112E2EF000700883120313BB
:100B9000880086120613861786130A128A11E22528
:100BA0000A128A110800F0007008831203138800EB
:100BB00086160613861786130A128A11E2250A1270
:100BC0008A110800FF308316031388008312031371
:100BD000861786120617EE2D86138617881BF12DB1
:100BE000F22DEC2D0310003003180130831603138F
:100BF0008800080038308312031388008612061319
:100C0000861786130A128A11E2250A128A110F30FA
:100C100083120313880086120613861786130A129E
:100C20008A11E2250A128A11013083120313880007
:100C300086120613861786130A128A11E2250A12F3
:100C40008A11063083120313880086120613861752
:100C50000A128A11E2250A128A1108001F3083162F
:100C600003138600031000300318013088000A12B5
:100C70008A11FA250A128A1140300A128A11C425F3
:100C80000A128A1100300A128A11D3250A128A1117
:100C90000A300A128A11D3250A128A110A300A125E
:100CA0008A11D3250A128A1100300A128A11D3251B
:100CB0000A128A1111300A128A11D3250A128A11D6
:100CC0000E300A128A11D3250A128A1100300A1234
:100CD0008A11D3250A128A1100300A128A11D325EB
:100CE0000A128A1100300A128A11D3250A128A11B7
:100CF0000A300A128A11D3250A128A110A300A12FE
:100D00008A11D3250A128A1100300A128A11D325BA
:100D10000A128A110E300A128A11D3250A128A1178
:100D200011300A128A11D3250A128A1100300A12D0
:100D30008A11D3250A128A1100300A128A11D3258A
:100D40000A128A110E300A128A11D3250A128A1148
:100D50001B300A128A11D3250A128A1111300A1285
:100D60008A11D3250A128A1111300A128A11D32549
:100D70000A128A1111300A128A11D3250A128A1115
:100D80001F300A128A11D3250A128A111F300A1243
:100D90008A11D3250A128A111F300A128A11D3250B
:100DA0000A128A1100300A128A11D3250A128A11F6
:100DB0000A300A128A11D3250A128A1115300A1232
:100DC0008A11D3250A128A1111300A128A11D325E9
:100DD0000A128A110A300A128A11D3250A128A11BC
:100DE00004300A128A11D3250A128A1100300A121D
:100DF0008A11D3250A128A1100300A128A11D325CA
:100E00000A128A1102300A128A11D3250A128A1193
:100E100004300A128A11D3250A128A1104300A12E8
:100E20008A11D3250A128A110E300A128A11D3258B
:100E30000A128A1111300A128A11D3250A128A1154
:100E400011300A128A11D3250A128A1111300A129E
:100E50008A11D3250A128A110E300A128A11D3255B
:100E60000A128A110E300A128A11D3250A128A1127
:100E70000E300A128A11D3250A128A110E300A1274
:100E80008A11D3250A128A110E300A128A11D3252B
:100E90000A128A110E300A128A11D3250A128A11F7
:100EA00000300A128A11D3250A128A110E300A1252
:100EB0008A11D3250A128A110E300A128A11D325FB
:100EC0000A128A111F300A128A11D3250A128A11B6
:100ED00004300A128A11D3250A128A111F300A120D
:100EE0008A11D3250A128A1100300A128A11D325D9
:100EF0000A128A1109300A128A11D3250A128A119C
:100F000015300A128A11D3250A128A1116300A12D4
:100F10008A11D3250A128A111F300A128A11D32589
:100F20000A128A1110300A128A11D3250A128A1164
:100F30001F300A128A11D3250A128A1110300A12A0
:100F40008A11D3250A128A1100300A128A11D32578
:100F50000A128A1109300A128A11D3250A128A113B
:100F600015300A128A11D3250A128A1113300A1277
:100F70008A11D3250A128A1109300A128A11D3253F
:100F80000A128A1101300A128A11C4250A128A1122
:100F900080300A128A11C4250A128A1107300A12F7
:100FA0008A11D3250A128A11C0300A128A11C42567
:100FB0000A128A1106300A128A11D3250A128A11DE
:100FC0000310003003180130F2007208833E0A1249
:100FD0008A11C4250A128A1172080A128A11D325AD
:100FE0000A128A110130F1007108F207083072020A
:100FF000031CFB2FFC2FE52FFC2F0A128A1100285F
:02400E00323F3F
:00000001FF
